{
  "_format": "hh-sol-artifact-1",
  "contractName": "DAOFacet",
  "sourceName": "contracts/Kryptomon/facets/DAOFacet.sol",
  "abi": [
    {
      "anonymous": false,
      "inputs": [
        {
          "components": [
            {
              "internalType": "string",
              "name": "name",
              "type": "string"
            },
            {
              "internalType": "uint256",
              "name": "maxQuantity",
              "type": "uint256"
            },
            {
              "internalType": "uint256",
              "name": "totalQuantity",
              "type": "uint256"
            },
            {
              "internalType": "bool",
              "name": "canBeTransferred",
              "type": "bool"
            },
            {
              "internalType": "uint8",
              "name": "category",
              "type": "uint8"
            },
            {
              "internalType": "bool",
              "name": "isEnhanceable",
              "type": "bool"
            },
            {
              "internalType": "bytes",
              "name": "ipfsMetadata",
              "type": "bytes"
            },
            {
              "internalType": "bool",
              "name": "isNFT",
              "type": "bool"
            },
            {
              "internalType": "string",
              "name": "uri",
              "type": "string"
            },
            {
              "internalType": "uint256",
              "name": "usdPrice",
              "type": "uint256"
            }
          ],
          "indexed": false,
          "internalType": "struct ItemType",
          "name": "_itemType",
          "type": "tuple"
        }
      ],
      "name": "AddItemType",
      "type": "event"
    },
    {
      "anonymous": false,
      "inputs": [
        {
          "indexed": true,
          "internalType": "address",
          "name": "previousDao",
          "type": "address"
        },
        {
          "indexed": true,
          "internalType": "address",
          "name": "newDao",
          "type": "address"
        }
      ],
      "name": "DaoTransferred",
      "type": "event"
    },
    {
      "anonymous": false,
      "inputs": [
        {
          "indexed": true,
          "internalType": "address",
          "name": "previousDaoTreasury",
          "type": "address"
        },
        {
          "indexed": true,
          "internalType": "address",
          "name": "newDaoTreasury",
          "type": "address"
        }
      ],
      "name": "DaoTreasuryTransferred",
      "type": "event"
    },
    {
      "anonymous": false,
      "inputs": [
        {
          "indexed": true,
          "internalType": "address",
          "name": "gameManager_",
          "type": "address"
        },
        {
          "indexed": true,
          "internalType": "uint256",
          "name": "limit_",
          "type": "uint256"
        },
        {
          "indexed": false,
          "internalType": "uint256",
          "name": "refreshTime_",
          "type": "uint256"
        }
      ],
      "name": "GameManagerAdded",
      "type": "event"
    },
    {
      "anonymous": false,
      "inputs": [
        {
          "indexed": true,
          "internalType": "address",
          "name": "gameManager_",
          "type": "address"
        }
      ],
      "name": "GameManagerRemoved",
      "type": "event"
    },
    {
      "anonymous": false,
      "inputs": [
        {
          "indexed": true,
          "internalType": "address",
          "name": "newItemManager_",
          "type": "address"
        }
      ],
      "name": "ItemManagerAdded",
      "type": "event"
    },
    {
      "anonymous": false,
      "inputs": [
        {
          "indexed": true,
          "internalType": "address",
          "name": "itemManager_",
          "type": "address"
        }
      ],
      "name": "ItemManagerRemoved",
      "type": "event"
    },
    {
      "anonymous": false,
      "inputs": [
        {
          "indexed": false,
          "internalType": "uint256",
          "name": "_wearableId",
          "type": "uint256"
        },
        {
          "indexed": false,
          "internalType": "int8[6]",
          "name": "_traitModifiers",
          "type": "int8[6]"
        },
        {
          "indexed": false,
          "internalType": "uint8",
          "name": "_rarityScoreModifier",
          "type": "uint8"
        }
      ],
      "name": "ItemModifiersSet",
      "type": "event"
    },
    {
      "anonymous": false,
      "inputs": [
        {
          "indexed": false,
          "internalType": "uint256[]",
          "name": "_itemIds",
          "type": "uint256[]"
        },
        {
          "indexed": false,
          "internalType": "uint256[]",
          "name": "_candyPrices",
          "type": "uint256[]"
        }
      ],
      "name": "ItemTypeCandyPrices",
      "type": "event"
    },
    {
      "anonymous": false,
      "inputs": [
        {
          "indexed": false,
          "internalType": "uint256[]",
          "name": "_itemIds",
          "type": "uint256[]"
        },
        {
          "indexed": false,
          "internalType": "uint256[]",
          "name": "_maxQuantities",
          "type": "uint256[]"
        }
      ],
      "name": "ItemTypeMaxQuantity",
      "type": "event"
    },
    {
      "anonymous": false,
      "inputs": [
        {
          "indexed": false,
          "internalType": "bytes32",
          "name": "_itemUpgradeId",
          "type": "bytes32"
        },
        {
          "indexed": false,
          "internalType": "uint256",
          "name": "_mainItemTypeId",
          "type": "uint256"
        },
        {
          "indexed": false,
          "internalType": "uint256",
          "name": "_resultItemTypeId",
          "type": "uint256"
        },
        {
          "indexed": false,
          "internalType": "uint256[]",
          "name": "_materialsQty",
          "type": "uint256[]"
        },
        {
          "indexed": false,
          "internalType": "uint256[][]",
          "name": "_itemTypeIds",
          "type": "uint256[][]"
        }
      ],
      "name": "ItemUpgradeAdded",
      "type": "event"
    },
    {
      "anonymous": false,
      "inputs": [
        {
          "indexed": false,
          "internalType": "bytes32",
          "name": "_itemUpgradeId",
          "type": "bytes32"
        }
      ],
      "name": "ItemUpgradeRemoved",
      "type": "event"
    },
    {
      "anonymous": false,
      "inputs": [
        {
          "indexed": true,
          "internalType": "address",
          "name": "migrationManager_",
          "type": "address"
        }
      ],
      "name": "MigrationManagerAdded",
      "type": "event"
    },
    {
      "anonymous": false,
      "inputs": [
        {
          "indexed": true,
          "internalType": "address",
          "name": "migrationManager_",
          "type": "address"
        }
      ],
      "name": "MigrationManagerRemoved",
      "type": "event"
    },
    {
      "anonymous": false,
      "inputs": [
        {
          "indexed": false,
          "internalType": "uint256[]",
          "name": "_tokenIds",
          "type": "uint256[]"
        },
        {
          "indexed": false,
          "internalType": "uint256[]",
          "name": "_xpValues",
          "type": "uint256[]"
        }
      ],
      "name": "RemoveExperience",
      "type": "event"
    },
    {
      "anonymous": false,
      "inputs": [
        {
          "indexed": false,
          "internalType": "uint256",
          "name": "_itemId",
          "type": "uint256"
        },
        {
          "indexed": false,
          "internalType": "uint256",
          "name": "_priceInWei",
          "type": "uint256"
        }
      ],
      "name": "UpdateItemPrice",
      "type": "event"
    },
    {
      "anonymous": false,
      "inputs": [
        {
          "indexed": false,
          "internalType": "uint256",
          "name": "_kmonToUsd",
          "type": "uint256"
        }
      ],
      "name": "UpdateKMONToUSDConversion",
      "type": "event"
    },
    {
      "inputs": [
        {
          "internalType": "address[]",
          "name": "_newGameManagers",
          "type": "address[]"
        },
        {
          "internalType": "uint256[]",
          "name": "_limits",
          "type": "uint256[]"
        }
      ],
      "name": "addGameManagers",
      "outputs": [],
      "stateMutability": "nonpayable",
      "type": "function"
    },
    {
      "inputs": [
        {
          "internalType": "address[]",
          "name": "_newItemManagers",
          "type": "address[]"
        }
      ],
      "name": "addItemManagers",
      "outputs": [],
      "stateMutability": "nonpayable",
      "type": "function"
    },
    {
      "inputs": [
        {
          "components": [
            {
              "internalType": "string",
              "name": "name",
              "type": "string"
            },
            {
              "internalType": "uint256",
              "name": "maxQuantity",
              "type": "uint256"
            },
            {
              "internalType": "uint256",
              "name": "totalQuantity",
              "type": "uint256"
            },
            {
              "internalType": "bool",
              "name": "canBeTransferred",
              "type": "bool"
            },
            {
              "internalType": "uint8",
              "name": "category",
              "type": "uint8"
            },
            {
              "internalType": "bool",
              "name": "isEnhanceable",
              "type": "bool"
            },
            {
              "internalType": "bytes",
              "name": "ipfsMetadata",
              "type": "bytes"
            },
            {
              "internalType": "bool",
              "name": "isNFT",
              "type": "bool"
            },
            {
              "internalType": "string",
              "name": "uri",
              "type": "string"
            },
            {
              "internalType": "uint256",
              "name": "usdPrice",
              "type": "uint256"
            }
          ],
          "internalType": "struct ItemType[]",
          "name": "_itemTypes",
          "type": "tuple[]"
        }
      ],
      "name": "addItemTypes",
      "outputs": [],
      "stateMutability": "nonpayable",
      "type": "function"
    },
    {
      "inputs": [
        {
          "internalType": "address[]",
          "name": "_newMigrationManagers",
          "type": "address[]"
        }
      ],
      "name": "addMigrationManagers",
      "outputs": [],
      "stateMutability": "nonpayable",
      "type": "function"
    },
    {
      "inputs": [
        {
          "internalType": "address",
          "name": "_manager",
          "type": "address"
        }
      ],
      "name": "gameManagerBalance",
      "outputs": [
        {
          "internalType": "uint256",
          "name": "",
          "type": "uint256"
        }
      ],
      "stateMutability": "view",
      "type": "function"
    },
    {
      "inputs": [
        {
          "internalType": "address",
          "name": "_manager",
          "type": "address"
        }
      ],
      "name": "gameManagerRefreshTime",
      "outputs": [
        {
          "internalType": "uint256",
          "name": "",
          "type": "uint256"
        }
      ],
      "stateMutability": "view",
      "type": "function"
    },
    {
      "inputs": [],
      "name": "getItemTypesCount",
      "outputs": [
        {
          "internalType": "uint256",
          "name": "",
          "type": "uint256"
        }
      ],
      "stateMutability": "view",
      "type": "function"
    },
    {
      "inputs": [],
      "name": "getKMONExchangeRate",
      "outputs": [
        {
          "internalType": "uint256",
          "name": "kmonToUsd",
          "type": "uint256"
        }
      ],
      "stateMutability": "view",
      "type": "function"
    },
    {
      "inputs": [
        {
          "internalType": "address",
          "name": "_manager",
          "type": "address"
        }
      ],
      "name": "isGameManager",
      "outputs": [
        {
          "internalType": "bool",
          "name": "",
          "type": "bool"
        }
      ],
      "stateMutability": "view",
      "type": "function"
    },
    {
      "inputs": [
        {
          "internalType": "address",
          "name": "_manager",
          "type": "address"
        }
      ],
      "name": "isMigrationManager",
      "outputs": [
        {
          "internalType": "bool",
          "name": "",
          "type": "bool"
        }
      ],
      "stateMutability": "view",
      "type": "function"
    },
    {
      "inputs": [
        {
          "internalType": "address",
          "name": "_to",
          "type": "address"
        },
        {
          "internalType": "uint256[]",
          "name": "_itemIds",
          "type": "uint256[]"
        },
        {
          "internalType": "uint256[]",
          "name": "_quantities",
          "type": "uint256[]"
        }
      ],
      "name": "mintItems",
      "outputs": [],
      "stateMutability": "nonpayable",
      "type": "function"
    },
    {
      "inputs": [
        {
          "internalType": "address[]",
          "name": "_gameManagers",
          "type": "address[]"
        }
      ],
      "name": "removeGameManagers",
      "outputs": [],
      "stateMutability": "nonpayable",
      "type": "function"
    },
    {
      "inputs": [
        {
          "internalType": "address[]",
          "name": "_itemManagers",
          "type": "address[]"
        }
      ],
      "name": "removeItemManagers",
      "outputs": [],
      "stateMutability": "nonpayable",
      "type": "function"
    },
    {
      "inputs": [
        {
          "internalType": "bytes32",
          "name": "_itemUpgradeId",
          "type": "bytes32"
        }
      ],
      "name": "removeItemUpgrade",
      "outputs": [],
      "stateMutability": "nonpayable",
      "type": "function"
    },
    {
      "inputs": [
        {
          "internalType": "address[]",
          "name": "_migrationManagers",
          "type": "address[]"
        }
      ],
      "name": "removeMigrationManagers",
      "outputs": [],
      "stateMutability": "nonpayable",
      "type": "function"
    },
    {
      "inputs": [
        {
          "internalType": "address",
          "name": "_newDao",
          "type": "address"
        },
        {
          "internalType": "address",
          "name": "_newDaoTreasury",
          "type": "address"
        }
      ],
      "name": "setDao",
      "outputs": [],
      "stateMutability": "nonpayable",
      "type": "function"
    },
    {
      "inputs": [
        {
          "internalType": "uint256",
          "name": "_mainItemTypeId",
          "type": "uint256"
        },
        {
          "internalType": "uint256",
          "name": "_resultItemTypeId",
          "type": "uint256"
        },
        {
          "internalType": "uint256[]",
          "name": "_materialsQty",
          "type": "uint256[]"
        },
        {
          "internalType": "uint256[][]",
          "name": "_itemTypeIds",
          "type": "uint256[][]"
        }
      ],
      "name": "setItemUpgrade",
      "outputs": [],
      "stateMutability": "nonpayable",
      "type": "function"
    },
    {
      "inputs": [
        {
          "internalType": "uint256[]",
          "name": "_itemIds",
          "type": "uint256[]"
        },
        {
          "internalType": "uint256[]",
          "name": "_candyPrices",
          "type": "uint256[]"
        }
      ],
      "name": "setItemsCandyPrices",
      "outputs": [],
      "stateMutability": "nonpayable",
      "type": "function"
    },
    {
      "inputs": [
        {
          "internalType": "uint256",
          "name": "_kmonToUsd",
          "type": "uint256"
        }
      ],
      "name": "setKMONExchangeRate",
      "outputs": [],
      "stateMutability": "nonpayable",
      "type": "function"
    },
    {
      "inputs": [
        {
          "internalType": "address",
          "name": "_stakingContract",
          "type": "address"
        }
      ],
      "name": "setStakingContractAddress",
      "outputs": [],
      "stateMutability": "nonpayable",
      "type": "function"
    },
    {
      "inputs": [
        {
          "internalType": "address",
          "name": "_usdContract",
          "type": "address"
        }
      ],
      "name": "setUSDContractAddress",
      "outputs": [],
      "stateMutability": "nonpayable",
      "type": "function"
    }
  ],
  "bytecode": "0x608060405234801561001057600080fd5b50613b84806100206000396000f3fe608060405234801561001057600080fd5b50600436106101375760003560e01c8063773c17aa116100b85780639a494da01161007c5780639a494da01461027d578063c7f7dc2e146102a9578063d8809e60146102bc578063e045fd04146102cf578063e5db9bd5146102fa578063fa1a0b211461030d57600080fd5b8063773c17aa1461021e5780637e0defc7146102315780638d85c96f146102445780639237211b14610257578063958de3421461026a57600080fd5b806351e9dfb4116100ff57806351e9dfb4146101cb5780635f5f669d146101de5780636826a415146101f0578063714bb8e614610203578063768e75bb1461021657600080fd5b8063012be5821461013c57806315c2c5bc146101515780631c1f8aa3146101645780631f3d842f146101775780633a00e0c01461018a575b600080fd5b61014f61014a366004613499565b610339565b005b61014f61015f3660046131f9565b61044b565b61014f610172366004613129565b610551565b61014f6101853660046131f9565b6105d1565b6101b6610198366004613129565b6001600160a01b031660009081526025602052604090205460ff1690565b60405190151581526020015b60405180910390f35b61014f6101d9366004613238565b61077e565b6044545b6040519081526020016101c2565b61014f6101fe3660046131f9565b6109e1565b61014f610211366004613129565b610b69565b6039546101e2565b61014f61022c36600461314a565b610be9565b61014f61023f3660046131f9565b610ce9565b61014f61025236600461317c565b610e30565b61014f6102653660046134d9565b6113c0565b61014f6102783660046131f9565b612152565b6101e261028b366004613129565b6001600160a01b031660009081526012602052604090206001015490565b61014f6102b73660046132a0565b612298565b61014f6102ca366004613499565b6122ef565b6101b66102dd366004613129565b6001600160a01b0316600090815260126020526040902054151590565b61014f610308366004613434565b6125bd565b6101e261031b366004613129565b6001600160a01b031660009081526012602052604090206002015490565b600061034361274e565b905061034d6127ab565b6001600160a01b0316816001600160a01b0316148061038957506001600160a01b0381166000908152602b602052604090205460ff1615156001145b6103ae5760405162461bcd60e51b81526004016103a590613793565b60405180910390fd5b6000821161040f5760405162461bcd60e51b815260206004820152602860248201527f44414f46616365743a204b4d4f4e2065786368616e676520726174652063616e60448201526706e6f7420626520360c41b60648201526084016103a5565b60448290556040518281527f3d0d71efec9dfc47132fe9e23755eb862b303c610b0a95b941d12e7220596dc79060200160405180910390a15050565b600061045561274e565b600f549091506001600160a01b038083169116148061048c57506104776127ab565b6001600160a01b0316816001600160a01b0316145b6104a85760405162461bcd60e51b81526004016103a5906137fb565b60005b8281101561054b5760008484838181106104d557634e487b7160e01b600052603260045260246000fd5b90506020020160208101906104ea9190613129565b6001600160a01b0381166000818152602b6020526040808220805460ff191660011790555192935090917ff2c13b8fd3c40050efb18902b7b0ac37194177559632807f3e848d302f7523889190a2508061054381613b07565b9150506104ab565b50505050565b600061055b61274e565b600f549091506001600160a01b0380831691161480610592575061057d6127ab565b6001600160a01b0316816001600160a01b0316145b6105ae5760405162461bcd60e51b81526004016103a5906137fb565b50604680546001600160a01b0319166001600160a01b0392909216919091179055565b60006105db61274e565b600f549091506001600160a01b038083169116148061061257506105fd6127ab565b6001600160a01b0316816001600160a01b0316145b61062e5760405162461bcd60e51b81526004016103a5906137fb565b60005b8281101561054b57600060128186868581811061065e57634e487b7160e01b600052603260045260246000fd5b90506020020160208101906106739190613129565b6001600160a01b03168152602081019190915260400160002080549091506106fd5760405162461bcd60e51b815260206004820152603760248201527f44414f46616365743a2047616d654d616e6167657220646f6573206e6f7420656044820152761e1a5cdd081bdc88185b1c9958591e481c995b5bdd9959604a1b60648201526084016103a5565b6000815584848381811061072157634e487b7160e01b600052603260045260246000fd5b90506020020160208101906107369190613129565b6001600160a01b03167f6de82f827471160af273ccdc03ce8be3a40f2f9fe7fa4110cd02799717bb3d9160405160405180910390a2508061077681613b07565b915050610631565b600061078861274e565b600f549091506001600160a01b03808316911614806107bf57506107aa6127ab565b6001600160a01b0316816001600160a01b0316145b6107db5760405162461bcd60e51b81526004016103a5906137fb565b8382146108505760405162461bcd60e51b815260206004820152603e60248201527f44414f46616365743a204e65772047616d65204d616e616765727320616e642060448201527f4c696d6974732073686f756c6420686176652073616d65206c656e677468000060648201526084016103a5565b60005b848110156109d957600060128188888581811061088057634e487b7160e01b600052603260045260246000fd5b90506020020160208101906108959190613129565b6001600160a01b03166001600160a01b0316815260200190815260200160002090508484838181106108d757634e487b7160e01b600052603260045260246000fd5b602002919091013582555084848381811061090257634e487b7160e01b600052603260045260246000fd5b602002919091013560018301555061091d4262015180613a28565b600282015584848381811061094257634e487b7160e01b600052603260045260246000fd5b9050602002013587878481811061096957634e487b7160e01b600052603260045260246000fd5b905060200201602081019061097e9190613129565b6001600160a01b03167f1938fc3b51efb8e61b7a7a256f8a151ac603027ea5140c46a586f89addeb878a6109b54262015180613a28565b60405190815260200160405180910390a350806109d181613b07565b915050610853565b505050505050565b60006109eb61274e565b600f549091506001600160a01b0380831691161480610a225750610a0d6127ab565b6001600160a01b0316816001600160a01b0316145b610a3e5760405162461bcd60e51b81526004016103a5906137fb565b60005b8281101561054b576000848483818110610a6b57634e487b7160e01b600052603260045260246000fd5b9050602002016020810190610a809190613129565b6001600160a01b0381166000908152602b602052604090205490915060ff161515600114610b105760405162461bcd60e51b815260206004820152603760248201527f44414f46616365743a206974656d4d616e6167657220646f6573206e6f7420656044820152761e1a5cdd081bdc88185b1c9958591e481c995b5bdd9959604a1b60648201526084016103a5565b6001600160a01b0381166000818152602b6020526040808220805460ff19169055517fcc35a95650199b3391d28b011c4382d94c66a9b64e37b61a37774f68311eef2e9190a25080610b6181613b07565b915050610a41565b6000610b7361274e565b600f549091506001600160a01b0380831691161480610baa5750610b956127ab565b6001600160a01b0316816001600160a01b0316145b610bc65760405162461bcd60e51b81526004016103a5906137fb565b50604280546001600160a01b0319166001600160a01b0392909216919091179055565b6000610bf361274e565b600f549091506001600160a01b0380831691161480610c2a5750610c156127ab565b6001600160a01b0316816001600160a01b0316145b610c465760405162461bcd60e51b81526004016103a5906137fb565b600f546040516001600160a01b038086169216907f80e372951996d4eaf55bac69d189ad3c5f3992dc8f486d85c2c7abfffe09f99d90600090a36010546040516001600160a01b038085169216907f8dda99f4c0976732c5a97f50fdbc947bf07b9aef1a4745bcc8ab59b5302f6b8690600090a350600f80546001600160a01b039384166001600160a01b03199182161790915560108054929093169116179055565b6000610cf361274e565b600f549091506001600160a01b0380831691161480610d2a5750610d156127ab565b6001600160a01b0316816001600160a01b0316145b610d465760405162461bcd60e51b81526004016103a5906137fb565b60005b8281101561054b57600160256000868685818110610d7757634e487b7160e01b600052603260045260246000fd5b9050602002016020810190610d8c9190613129565b6001600160a01b031681526020810191909152604001600020805460ff1916911515919091179055838382818110610dd457634e487b7160e01b600052603260045260246000fd5b9050602002016020810190610de99190613129565b6001600160a01b03167f15a309ef97996ac0230f25e9d92db80a5983dde5792e2ec0592f2f2ca65b493960405160405180910390a280610e2881613b07565b915050610d49565b6000610e3a61274e565b6001600160a01b0381166000908152602b602052604090205490915060ff161515600114610e7a5760405162461bcd60e51b81526004016103a59061383c565b838214610ee35760405162461bcd60e51b815260206004820152603160248201527f44414f46616365743a205f6974656d496473206e6f742073616d65206c656e676044820152707468206173205f7175616e74697469657360781b60648201526084016103a5565b6000610ef1868686866127d9565b90506000816001600160401b03811115610f1b57634e487b7160e01b600052604160045260246000fd5b604051908082528060200260200182016040528015610f44578160200160208202803683370190505b5090506000826001600160401b03811115610f6f57634e487b7160e01b600052604160045260246000fd5b604051908082528060200260200182016040528015610f98578160200160208202803683370190505b5090506000925060005b8781101561133757610fce60405180606001604052806000815260200160008152602001600081525090565b898983818110610fee57634e487b7160e01b600052603260045260246000fd5b602002919091013582525087878381811061101957634e487b7160e01b600052603260045260246000fd5b602090810292909201359183019190915250600060396037828d8d8781811061105257634e487b7160e01b600052603260045260246000fd5b905060200201358152602001908152602001600020548154811061108657634e487b7160e01b600052603260045260246000fd5b9060005260206000209060080201905060008160010154116110ea5760405162461bcd60e51b815260206004820152601a60248201527f44414f46616365743a204974656d54797065206d697373696e6700000000000060448201526064016103a5565b6000826020015182600201546111009190613a28565b9050816001015481111561117c5760405162461bcd60e51b815260206004820152603760248201527f44414f46616365743a20546f74616c206974656d2074797065207175616e746960448201527f74792065786365656473206d6178207175616e7469747900000000000000000060648201526084016103a5565b60028201819055600582015460ff161561129f5782516000908152604160205260408120546111ac906001613a28565b8451600090815260416020908152604090912054908601519192506111d091613a28565b84516000908152604160205260408120919091555b8460200151811015611298576111fb8183613a28565b85600001511785604001818152505061121a8f866040015160016128c3565b8460400151888a8151811061123f57634e487b7160e01b600052603260045260246000fd5b6020026020010181815250506001878a8151811061126d57634e487b7160e01b600052603260045260246000fd5b60209081029190910101528861128281613b07565b995050808061129090613b07565b9150506111e5565b5050611321565b6112b28d846000015185602001516128c3565b82600001518688815181106112d757634e487b7160e01b600052603260045260246000fd5b602002602001018181525050826020015185888151811061130857634e487b7160e01b600052603260045260246000fd5b60209081029190910101528661131d81613b07565b9750505b505050808061132f90613b07565b915050610fa2565b506001600160a01b038916600061134c61274e565b6001600160a01b03167f4a39dc06d4c0dbc64b70af90fd698a233a518aa5d07e595d983b8c0526c8f7fb85856040516113869291906136a3565b60405180910390a46113b561139961274e565b60008b8b8b8b8b604051806020016040528060008152506129d4565b505050505050505050565b60006113ca61274e565b90506113d46127ab565b6001600160a01b0316816001600160a01b0316148061141057506001600160a01b0381166000908152602b602052604090205460ff1615156001145b61142c5760405162461bcd60e51b81526004016103a590613793565b8382146114a15760405162461bcd60e51b815260206004820152603760248201527f44414f46416365743a205f6d6174657269616c73517479206e6f742073616d6560448201527f206c656e677468206173205f6974656d5479706549647300000000000000000060648201526084016103a5565b836114ee5760405162461bcd60e51b815260206004820181905260248201527f44414f46616365743a206d7573742070726f76696465206d6174657269616c7360448201526064016103a5565b60008781526037602052604081205460398054909190811061152057634e487b7160e01b600052603260045260246000fd5b90600052602060002090600802016040518061014001604052908160008201805461154a90613acc565b80601f016020809104026020016040519081016040528092919081815260200182805461157690613acc565b80156115c35780601f10611598576101008083540402835291602001916115c3565b820191906000526020600020905b8154815290600101906020018083116115a657829003601f168201915b50505091835250506001820154602082015260028201546040820152600382015460ff808216151560608401526101008204811660808401526201000090910416151560a082015260048201805460c09092019161162090613acc565b80601f016020809104026020016040519081016040528092919081815260200182805461164c90613acc565b80156116995780601f1061166e57610100808354040283529160200191611699565b820191906000526020600020905b81548152906001019060200180831161167c57829003601f168201915b5050509183525050600582015460ff16151560208201526006820180546040909201916116c590613acc565b80601f01602080910402602001604051908101604052809291908181526020018280546116f190613acc565b801561173e5780601f106117135761010080835404028352916020019161173e565b820191906000526020600020905b81548152906001019060200180831161172157829003601f168201915b50505050508152602001600782015481525050905060008160200151116117b75760405162461bcd60e51b815260206004820152602760248201527f44414f46616365743a205f6d61696e4974656d54797065496420646f65736e276044820152661d08195e1a5cdd60ca1b60648201526084016103a5565b6000878152603760205260408120546039805490919081106117e957634e487b7160e01b600052603260045260246000fd5b90600052602060002090600802016040518061014001604052908160008201805461181390613acc565b80601f016020809104026020016040519081016040528092919081815260200182805461183f90613acc565b801561188c5780601f106118615761010080835404028352916020019161188c565b820191906000526020600020905b81548152906001019060200180831161186f57829003601f168201915b50505091835250506001820154602082015260028201546040820152600382015460ff808216151560608401526101008204811660808401526201000090910416151560a082015260048201805460c0909201916118e990613acc565b80601f016020809104026020016040519081016040528092919081815260200182805461191590613acc565b80156119625780601f1061193757610100808354040283529160200191611962565b820191906000526020600020905b81548152906001019060200180831161194557829003601f168201915b5050509183525050600582015460ff161515602082015260068201805460409092019161198e90613acc565b80601f01602080910402602001604051908101604052809291908181526020018280546119ba90613acc565b8015611a075780601f106119dc57610100808354040283529160200191611a07565b820191906000526020600020905b8154815290600101906020018083116119ea57829003601f168201915b5050505050815260200160078201548152505090506000826020015111611a825760405162461bcd60e51b815260206004820152602960248201527f44414f46616365743a205f726573756c744974656d54797065496420646f65736044820152681b89dd08195e1a5cdd60ba1b60648201526084016103a5565b60408051602081018b905290810189905260009060600160408051808303601f19018152828252805160209182012060a084018352606080850181905260808501528084529083018d90529082018b9052915060005b88811015611ef95760008a8a83818110611b0257634e487b7160e01b600052603260045260246000fd5b9050602002013511611b6b5760405162461bcd60e51b815260206004820152602c60248201527f44414f46616365743a205f6d6174657269616c517479206d757374206265206260448201526b06967676572207468616e20360a41b60648201526084016103a5565b60005b888883818110611b8e57634e487b7160e01b600052603260045260246000fd5b9050602002810190611ba09190613965565b9050811015611ee657600060396037828c8c87818110611bd057634e487b7160e01b600052603260045260246000fd5b9050602002810190611be29190613965565b86818110611c0057634e487b7160e01b600052603260045260246000fd5b9050602002013581526020019081526020016000205481548110611c3457634e487b7160e01b600052603260045260246000fd5b906000526020600020906008020160405180610140016040529081600082018054611c5e90613acc565b80601f0160208091040260200160405190810160405280929190818152602001828054611c8a90613acc565b8015611cd75780601f10611cac57610100808354040283529160200191611cd7565b820191906000526020600020905b815481529060010190602001808311611cba57829003601f168201915b50505091835250506001820154602082015260028201546040820152600382015460ff808216151560608401526101008204811660808401526201000090910416151560a082015260048201805460c090920191611d3490613acc565b80601f0160208091040260200160405190810160405280929190818152602001828054611d6090613acc565b8015611dad5780601f10611d8257610100808354040283529160200191611dad565b820191906000526020600020905b815481529060010190602001808311611d9057829003601f168201915b5050509183525050600582015460ff1615156020820152600682018054604090920191611dd990613acc565b80601f0160208091040260200160405190810160405280929190818152602001828054611e0590613acc565b8015611e525780601f10611e2757610100808354040283529160200191611e52565b820191906000526020600020905b815481529060010190602001808311611e3557829003601f168201915b5050505050815260200160078201548152505090506000816020015111611ed35760405162461bcd60e51b815260206004820152602f60248201527f44414f46616365743a206f6e65206f6620746865205f6974656d54797065496460448201526e1cc8191bd95cdb89dd08195e1a5cdd608a1b60648201526084016103a5565b5080611ede81613b07565b915050611b6e565b5080611ef181613b07565b915050611ad8565b508888808060200260200160405190810160405280939291908181526020018383602002808284376000920191909152505050506060820152611f3c8688613a57565b60808201528051600090815260476020526040902054156120045780516000908152604760205260409020548190604890611f7990600190613a40565b81548110611f9757634e487b7160e01b600052603260045260246000fd5b90600052602060002090600502016000820151816000015560208201518160010155604082015181600201556060820151816003019080519060200190611fdf929190612db6565b5060808201518051611ffb916004840191602090910190612e01565b50905050612102565b60488054600181018255600091909152815160059091027f15040156076f78057c0a886f6dbac29221fa3c2646adbc8effedab98152ff32b81019182556020808401517f15040156076f78057c0a886f6dbac29221fa3c2646adbc8effedab98152ff32c83015560408401517f15040156076f78057c0a886f6dbac29221fa3c2646adbc8effedab98152ff32d830155606084015180518594936120ce937f15040156076f78057c0a886f6dbac29221fa3c2646adbc8effedab98152ff32e909101920190612db6565b50608082015180516120ea916004840191602090910190612e01565b50506048548251600090815260476020526040902055505b7ff9cbdbc7d9239a6113177a10fd0316a8174329220824ed1574a2026d5c6fca2c828c8c8c8c8c8c60405161213d97969594939291906136d1565b60405180910390a15050505050505050505050565b600061215c61274e565b600f549091506001600160a01b0380831691161480612193575061217e6127ab565b6001600160a01b0316816001600160a01b0316145b6121af5760405162461bcd60e51b81526004016103a5906137fb565b60005b8281101561054b5760006025818686858181106121df57634e487b7160e01b600052603260045260246000fd5b90506020020160208101906121f49190613129565b6001600160a01b031681526020810191909152604001600020805460ff191691151591909117905583838281811061223c57634e487b7160e01b600052603260045260246000fd5b90506020020160208101906122519190613129565b6001600160a01b03167f3f48b87d9b050c6d7c99bdccf21c9cfaacb19b83522671eb0d5c02c9862da4b460405160405180910390a28061229081613b07565b9150506121b2565b60006122a261274e565b6001600160a01b0381166000908152602b602052604090205490915060ff1615156001146122e25760405162461bcd60e51b81526004016103a59061383c565b6122eb82612ad8565b5050565b60006122f961274e565b90506123036127ab565b6001600160a01b0316816001600160a01b0316148061233f57506001600160a01b0381166000908152602b602052604090205460ff1615156001145b61235b5760405162461bcd60e51b81526004016103a590613793565b60008281526047602052604081205460488054909190811061238d57634e487b7160e01b600052603260045260246000fd5b906000526020600020906005020160010154116123fb5760405162461bcd60e51b815260206004820152602660248201527f44414f46616365743a205f6974656d55706772616465496420646f65736e277460448201526508195e1a5cdd60d21b60648201526084016103a5565b60008281526047602052604081205461241690600190613a40565b60485490915060009061242b90600190613a40565b905080821461250757600080604801828154811061245957634e487b7160e01b600052603260045260246000fd5b90600052602060002090600502019050806000604801848154811061248e57634e487b7160e01b600052603260045260246000fd5b906000526020600020906005020160008201548160000155600182015481600101556002820154816002015560038201816003019080546124d0929190612e5a565b50600482810180546124e59284019190612e9a565b506124f591508490506001613a28565b90546000908152604760205260409020555b604880548061252657634e487b7160e01b600052603160045260246000fd5b60008281526020812060056000199093019283020181815560018101829055600281018290559061255a6003830182612ee6565b612568600483016000612f07565b5050905560008481526047602052604080822091909155517f48d1670d92bb7bb19aca0fc3b74db8f210c1049fcc22908a657bad63f801f17a906125af9086815260200190565b60405180910390a150505050565b60006125c761274e565b90506125d16127ab565b6001600160a01b0316816001600160a01b0316148061260d57506001600160a01b0381166000908152602b602052604090205460ff1615156001145b6126295760405162461bcd60e51b81526004016103a590613793565b815183146126945760405162461bcd60e51b815260206004820152603260248201527f44414f46616365743a205f6974656d496473206e6f742073616d65206c656e676044820152717468206173205f63616e647950726963657360701b60648201526084016103a5565b60005b8381101561271a578281815181106126bf57634e487b7160e01b600052603260045260246000fd5b6020026020010151600060450160008787858181106126ee57634e487b7160e01b600052603260045260246000fd5b90506020020135815260200190815260200160002081905550808061271290613b07565b915050612697565b507f2cab4f7f69c8f08ac5b2ef1bd4fa9eb17ef30a3ac50e47c6ac46993e84dff8048484846040516125af93929190613673565b6000333014156127a557600080368080601f0160208091040260200160405190810160405280939291908181526020018383808284376000920191909152505050503601516001600160a01b031691506127a89050565b50335b90565b7fc8fcad8db84d3cc18b4c41d551ea0ee66dd599cde068d998e57d5e09332c1320546001600160a01b031690565b6000805b848110156128ba576000603960378289898681811061280c57634e487b7160e01b600052603260045260246000fd5b905060200201358152602001908152602001600020548154811061284057634e487b7160e01b600052603260045260246000fd5b60009182526020909120600890910201600581015490915060ff16156128995784848381811061288057634e487b7160e01b600052603260045260246000fd5b90506020020135836128929190613a28565b92506128a7565b826128a381613b07565b9350505b50806128b281613b07565b9150506127dd565b50949350505050565b6000600160ff1b8084161415612923576001600160a01b0384166000908152603d8201602090815260408083206fffffffffffffffffffffffffffffffff1987168085529252822080549192859261291c908490613a28565b9091555050505b6001600160a01b0384166000908152603d82016020908152604080832086845290915281208054849290612958908490613a28565b90915550506001600160a01b0384166000908152603f82016020908152604080832086845290915290205461054b576001600160a01b0384166000818152603e8301602090815260408083208054600181018255818552838520018890559383529254603f850182528383208784529091529190205550505050565b853b80156113b55760405163bc197c8160e01b81526001600160a01b0388169063bc197c8190612a14908c908c908b908b908b908b908b90600401613611565b602060405180830381600087803b158015612a2e57600080fd5b505af1158015612a42573d6000803e3d6000fd5b505050506040513d601f19601f82011682018060405250810190612a6691906134b1565b6001600160e01b03191663bc197c8160e01b146113b55760405162461bcd60e51b815260206004820152602a60248201527f5765617261626c65733a205472616e736665722072656a65637465642f6661696044820152696c6564206279205f746f60b01b60648201526084016103a5565b60395460005b8251811015612db1576000608083612af581613b07565b9450901b9050838281518110612b1b57634e487b7160e01b600052603260045260246000fd5b602002602001015160e0015115612b3357600160ff1b175b838281518110612b5357634e487b7160e01b600052603260045260246000fd5b6020908102919091018101516080015130600090815260408084528082208583529093529190912060ff90911690558351603990859084908110612ba757634e487b7160e01b600052603260045260246000fd5b602090810291909101810151825460018101845560009384529282902081518051929460080290910192612be092849290910190612f25565b506020828101516001830155604083015160028301556060830151600383018054608086015160a08701511515620100000262ff00001960ff929092166101000261ff00199515159590951661ffff1990931692909217939093179290921691909117905560c08301518051612c5c9260048501920190612f25565b5060e082015160058201805460ff19169115159190911790556101008201518051612c91916006840191602090910190612f25565b5061012091909101516007909101556039548190603690600090612cb790600190613a40565b8152602081019190915260400160002055603954612cd790600190613a40565b60008281526037602052604090205583517f3cc845052fd0a93d1322152dacf408df761b467ee56040afecdacf0abdc79bb790859084908110612d2a57634e487b7160e01b600052603260045260246000fd5b6020026020010151604051612d3f9190613899565b60405180910390a1600080612d5261274e565b6001600160a01b03167fc3d58168c5ae7397731d063d5bbf3d657854427343f4c083240f7aacaa2d0f62846000604051612d96929190918252602082015260400190565b60405180910390a45080612da981613b07565b915050612ade565b505050565b828054828255906000526020600020908101928215612df1579160200282015b82811115612df1578251825591602001919060010190612dd6565b50612dfd929150612f98565b5090565b828054828255906000526020600020908101928215612e4e579160200282015b82811115612e4e5782518051612e3e918491602090910190612db6565b5091602001919060010190612e21565b50612dfd929150612fad565b828054828255906000526020600020908101928215612df15760005260206000209182015b82811115612df1578254825591600101919060010190612e7f565b828054828255906000526020600020908101928215612e4e5760005260206000209182015b82811115612e4e578254612ed69083908590612e5a565b5091600101919060010190612ebf565b5080546000825590600052602060002090810190612f049190612f98565b50565b5080546000825590600052602060002090810190612f049190612fad565b828054612f3190613acc565b90600052602060002090601f016020900481019282612f535760008555612df1565b82601f10612f6c57805160ff1916838001178555612df1565b82800160010185558215612df15791820182811115612df1578251825591602001919060010190612dd6565b5b80821115612dfd5760008155600101612f99565b80821115612dfd576000612fc18282612ee6565b50600101612fad565b80356001600160a01b0381168114612fe157600080fd5b919050565b60008083601f840112612ff7578182fd5b5081356001600160401b0381111561300d578182fd5b6020830191508360208260051b850101111561302857600080fd5b9250929050565b600082601f83011261303f578081fd5b8135602061305461304f83613a05565b6139d5565b80838252828201915082860187848660051b8901011115613073578586fd5b855b8581101561309157813584529284019290840190600101613075565b5090979650505050505050565b80358015158114612fe157600080fd5b600082601f8301126130be578081fd5b81356001600160401b038111156130d7576130d7613b38565b6130ea601f8201601f19166020016139d5565b8181528460208386010111156130fe578283fd5b816020850160208301379081016020019190915292915050565b803560ff81168114612fe157600080fd5b60006020828403121561313a578081fd5b61314382612fca565b9392505050565b6000806040838503121561315c578081fd5b61316583612fca565b915061317360208401612fca565b90509250929050565b600080600080600060608688031215613193578081fd5b61319c86612fca565b945060208601356001600160401b03808211156131b7578283fd5b6131c389838a01612fe6565b909650945060408801359150808211156131db578283fd5b506131e888828901612fe6565b969995985093965092949392505050565b6000806020838503121561320b578182fd5b82356001600160401b03811115613220578283fd5b61322c85828601612fe6565b90969095509350505050565b6000806000806040858703121561324d578182fd5b84356001600160401b0380821115613263578384fd5b61326f88838901612fe6565b90965094506020870135915080821115613287578384fd5b5061329487828801612fe6565b95989497509550505050565b600060208083850312156132b2578182fd5b82356001600160401b03808211156132c8578384fd5b818501915085601f8301126132db578384fd5b81356132e961304f82613a05565b80828252858201915085850189878560051b8801011115613308578788fd5b875b848110156134255781358681111561332057898afd5b8701610140818d03601f1901121561333657898afd5b61333e6139ac565b898201358881111561334e578b8cfd5b61335c8e8c838601016130ae565b82525060408201358a8201526060820135604082015261337e6080830161309e565b606082015261338f60a08301613118565b60808201526133a060c0830161309e565b60a082015260e0820135888111156133b6578b8cfd5b6133c48e8c838601016130ae565b60c0830152506101006133d881840161309e565b60e0830152610120830135898111156133ef578c8dfd5b6133fd8f8d838701016130ae565b918301919091525061014091909101356101208201528452928701929087019060010161330a565b50909998505050505050505050565b600080600060408486031215613448578081fd5b83356001600160401b038082111561345e578283fd5b61346a87838801612fe6565b90955093506020860135915080821115613482578283fd5b5061348f8682870161302f565b9150509250925092565b6000602082840312156134aa578081fd5b5035919050565b6000602082840312156134c2578081fd5b81516001600160e01b031981168114613143578182fd5b600080600080600080608087890312156134f1578384fd5b863595506020870135945060408701356001600160401b0380821115613515578586fd5b6135218a838b01612fe6565b90965094506060890135915080821115613539578283fd5b5061354689828a01612fe6565b979a9699509497509295939492505050565b81835260006001600160fb1b03831115613570578081fd5b8260051b80836020870137939093016020019283525090919050565b6000815180845260208085019450808401835b838110156135bb5781518752958201959082019060010161359f565b509495945050505050565b60008151808452815b818110156135eb576020818501810151868301820152016135cf565b818111156135fc5782602083870101525b50601f01601f19169290920160200192915050565b6001600160a01b0388811682528716602082015260a06040820181905260009061363e9083018789613558565b8281036060840152613651818688613558565b9050828103608084015261366581856135c6565b9a9950505050505050505050565b604081526000613687604083018587613558565b8281036020840152613699818561358c565b9695505050505050565b6040815260006136b6604083018561358c565b82810360208401526136c8818561358c565b95945050505050565b87815260006020888184015287604084015260a060608401526136f860a084018789613558565b8381036080850152848152818101600586811b8301840188865b8981101561377f57858303601f190185528135368c9003601e19018112613737578889fd5b8b0180356001600160401b0381111561374e57898afd5b80861b36038d131561375e57898afd5b61376b85828b8501613558565b968901969450505090860190600101613712565b50909e9d5050505050505050505050505050565b60208082526042908201527f4c696241707053746f726167653a206f6e6c7920616e204f776e6572206f722060408201527f4974656d4d616e616765722063616e2063616c6c20746869732066756e63746960608201526137b760f11b608082015260a00190565b60208082526021908201527f4c696241707053746f726167653a20446f206e6f7420686176652061636365736040820152607360f81b606082015260800190565b60208082526039908201527f4c696241707053746f726167653a206f6e6c7920616e204974656d4d616e616760408201527f65722063616e2063616c6c20746869732066756e6374696f6e00000000000000606082015260800190565b60208152600082516101408060208501526138b86101608501836135c6565b9150602085015160408501526040850151606085015260608501516138e1608086018215159052565b50608085015160ff811660a08601525060a085015180151560c08601525060c0850151601f19808685030160e087015261391b84836135c6565b935060e087015191506101006139348188018415159052565b8088015192505061012081878603018188015261395185846135c6565b970151959092019490945250929392505050565b6000808335601e1984360301811261397b578283fd5b8301803591506001600160401b03821115613994578283fd5b6020019150600581901b360382131561302857600080fd5b60405161014081016001600160401b03811182821017156139cf576139cf613b38565b60405290565b604051601f8201601f191681016001600160401b03811182821017156139fd576139fd613b38565b604052919050565b60006001600160401b03821115613a1e57613a1e613b38565b5060051b60200190565b60008219821115613a3b57613a3b613b22565b500190565b600082821015613a5257613a52613b22565b500390565b6000613a6561304f84613a05565b808482526020808301925084368760051b87011115613a82578485fd5b845b87811015613ac05781356001600160401b03811115613aa1578687fd5b613aad36828a0161302f565b8652509382019390820190600101613a84565b50919695505050505050565b600181811c90821680613ae057607f821691505b60208210811415613b0157634e487b7160e01b600052602260045260246000fd5b50919050565b6000600019821415613b1b57613b1b613b22565b5060010190565b634e487b7160e01b600052601160045260246000fd5b634e487b7160e01b600052604160045260246000fdfea2646970667358221220194778e7453a08d1fd2af0af9168675a23fa1be3794c84d1ae8f51fd8bbedace64736f6c63430008040033",
  "linkReferences": {},
  "deployedLinkReferences": {}
}